:020000040000FA
:100000000A128A110C280134FE00030EF0000A08BF
:10001000F1000A128A1501280A128A110F28831387
:10002000E030FD001230FE00D630FF00C730840003
:100030000A168A11B2220A128A110A128A1500209F
:100040000A128A11EF000A128A1103200A128A1179
:10005000FB00A0308400C7300A168A1113220A124E
:100060008A11523084006F300A168A1113220A1244
:100070008A11FA0183010A128A113E280130831283
:100080000313D000CF01831603135D0883120313FB
:10009000C600831603135E0883120313C70083167A
:1000A00003135F0883120313C800C7308400333082
:1000B000AF000C30B00083130008B100040AB20096
:1000C0002F08840031088000040AAF003208840041
:1000D000B00B5B28CA013F30CC00CD01CE010A161F
:1000E0008A118C250A128A11463083120313A1004B
:1000F000A2010A168A11A6270A128A116D30F7008A
:100100009130F80000300A168A11E5230A128A118C
:100110000A30F6000030F7000A168A1189220A1206
:100120008A117308F9007208F8000A168A11C625A8
:100130000A128A11760883120313CB0064304B0233
:10014000031CA328A428A6286330CB00500303195E
:10015000AA28AB28B728023050060319B028B128C6
:10016000B72808305006031DB628B728D328013019
:100170000A168A11BB230A128A1183120313D100B3
:100180002C30BF000130C0000130BF020030031C22
:10019000C003C0023F0A031DD128400A031DD12815
:1001A000D228C4280029033050060319D828D9289A
:1001B000E528043050060319DE28DF28E52807303B
:1001C0005006031DE428E528002900300A168A118C
:1001D000BB230A128A1183120313D1002030C100FD
:1001E0004E30C2000130C1020030031CC203C20203
:1001F000410A031DFF28420A031DFF280029F22897
:100200003E305106031D052906291D294630F200FE
:100210007530F3009130F4000A168A114E230A1249
:100220008A11463083120313A1004B08A2000A165C
:100230008A11A6270A128A11182C3D305106031D77
:10024000222923294C2906304A0203182829292962
:100250004C294630F2004A08AF002F07333E840095
:1002600083130008F300840A00088403F4000A16CC
:100270008A114E230A128A11013083120313CA070E
:10028000463083120313A1004B08A2000A168A11FC
:10029000A6270A128A11182C3B305106031D51293A
:1002A00052296D294A080319562957296D29013009
:1002B000CA024630F2004A08AF002F07333E8400DE
:1002C00083130008F300840A00088403F4000A166C
:1002D0008A114E230A128A1140295003031D7129E5
:1002E0007229A429373051060319772978297E29E4
:1002F0002F305106031D7D297E29A4290230D0000C
:100300001130CF000A168A1166220A128A119C3017
:10031000F6009030F7008130F8000A168A11942414
:100320000A128A11F201C4300A168A110D230A1228
:100330008A11F2010F300A168A110D230A128A114E
:10034000831203131215182C03305006031DA9291C
:10035000AA29EF2902306F06031DAF29B029EF2922
:1003600037305106031DB529B629EF29CE290430AF
:10037000D0003330CF00DF290530D0004430CF002B
:10038000DF290630D000DF290730D0005530CF00FC
:10039000DF290830D0006630CF00DF294508003A59
:1003A0000319B729013A0319BC29033A0319C129D2
:1003B000013A0319C429073A0319C929DF290A1682
:1003C0008A1166220A128A1183120313CD01CE010B
:1003D0003F30CC00D1000330EF001211182C033055
:1003E0005006031DF429F529182C02306F06031D51
:1003F000FA29FB29182C2F305106031D002A012A47
:10040000182C0130D000DF294630A2004B08A30091
:100410000A168A11A4260A128A11342C0A168A1185
:1004200066220A128A11013083120313D000F201EE
:100430000C300A168A110D230A128A118312031333
:100440001211342C0A168A1166220A128A110330FC
:1004500083120313D0002230CF0088284F08A20057
:1004600051080A128A1564260A128A110F3A0319D2
:10047000222AFF3A03190E2A342C37305106031969
:10048000422A432A492A2F305106031D482A492A65
:100490005D2A5108CC000130CD070318CE0A003088
:1004A000CE0700304E020A3003194D02031C592AB0
:1004B0005A2A742A0230EF00742A4D084E04031998
:1004C000622A632A722A00304E020A3003194D0252
:1004D00003186B2A6C2A722A0130EF004C08D100F5
:1004E0003F30CC00CD01CE016F03031D782A792A5D
:1004F000872A4F08A20051080A128A15D4230A122B
:100500008A1183120313C5000330EF009A2A0330C7
:100510006F06031D8C2A8D2A9A2A3F30D1004F087E
:10052000A20051080A128A15D4230A128A118312D2
:100530000313C500F0304506031D9F2AA02A342C62
:100540000A168A1166220A128A11013083120313D5
:10055000D0001E2A373051060319AF2AB02AB62A16
:100560002F305106031DB52AB62ACA2A5108CC00DD
:100570000130CD070318CE0A0030CE0700304E02FE
:100580000A3003194D02031CC62AC72AE12A023089
:10059000EF00E12A4D084E040319CF2AD02ADF2AA2
:1005A00000304E020A3003194D020318D82AD92A06
:1005B000DF2A0130EF004C08D1003F30CC00CD01E4
:1005C000CE016F03031DE52AE62AF42A4F08A30093
:1005D00051080A128A1538230A128A11831203134A
:1005E000C3000330EF003B2B03306F06031DF92AD5
:1005F000FA2A082B3F30D1004F08A30051080A12F5
:100600008A1538230A128A1183120313C3003B2B65
:1006100002306F06031D0D2B0E2B3B2B4C08D10017
:100620003F30CC004F08A30051080A128A15382326
:100630000A128A1183120313C300F12AC3010A1696
:100640008A1166220A128A11033083120313D00022
:10065000CD01CE012230CF0012158828C3010A1621
:100660008A1166220A128A11013083120313D00004
:10067000CD01CE01342C4308F03A03192E2B013A58
:1006800003191E2B342C4F080A168A116F230A12E5
:100690008A110A168A1166220A128A1101308312FF
:1006A0000313D000342C0A128A1596200A128A11DC
:1006B000492B3730510603195E2B5F2B652B2F30EA
:1006C0005106031D642B652B792B5108CC0001309A
:1006D000CD070318CE0A0030CE0700304E020B3093
:1006E00003194D02031C752B762B902B0230EF0063
:1006F000902B4D084E0403197E2B7F2B8E2B003040
:100700004E020A3003194D020318872B882B8E2BBB
:100710000130EF004C08D1003F30CC00CD01CE01BC
:100720006F03031D942B952BA32B4F08AA00510890
:100730000A128A113B240A128A1183120313C4007D
:100740000330EF00D12B03306F06031DA82BA92B1C
:10075000B72B3F30D1004F08AA0051080A128A1166
:100760003B240A128A1183120313C400D12B0230D6
:100770006F06031DBC2BBD2BD12B4C08D1003F3085
:10078000CC004F08AA0051080A128A113B240A1211
:100790008A1183120313C400A02BC4011F2BC401B0
:1007A000492B4408F03A0319CF2B013A0319CD2BFA
:1007B000342C4F08A20051080A128A153F250A124C
:1007C0008A1183120313C9001215F0304906031D64
:1007D000EA2BEB2BFD2BC9010A168A1166220A129D
:1007E0008A11013083120313D000F2010C300A1673
:1007F0008A110D230A128A111E2AF1304906031D9F
:10080000022C032C342CC9010A168A1166220A1202
:100810008A11033083120313D0002230CF00121547
:10082000F2010C300A168A110D230A128A11882847
:10083000831203135008013A0319042A033A0319D7
:100840002E2A013A03193D2A073A0319AA2A013A26
:100850000319432B033A0319532B013A0319592B5C
:100860000F3A0319D92B342C83120313CF01882894
:100870000A128A110C2883120313AE0055302A067F
:10088000031D432C442CAF2C0A128A155B210A123B
:100890008A11831203135808AB0004300310AB0C09
:1008A000FF3E031D4E2C2B08E6000330E605033007
:1008B0005805AB000A30F20066080A168A119B221E
:1008C0000A128A11831203132B07E6005908AB00A2
:1008D00004300310AB0CFF3E031D692C2B08E50010
:1008E0000730E5050F305905AB000A30F200650806
:1008F0000A168A119B220A128A11831203132B07EC
:10090000E5005A08AB0004300310AB0CFF3E031D9A
:10091000842C2B08E4000730E4050F305A05AB00A7
:100920000A30F20064080A168A119B220A128A1100
:10093000831203132B07E400E301E2010530DD001D
:100940000030DE003F30AE003330F6009130F7006B
:100950008430F8000A168A1194240A128A1137305A
:10096000831203132E06031DB62CB72CEB2C6F033A
:10097000031DBB2CBC2CEB2C6308031DC02CC12C0D
:10098000CB2C0130E4073C306402031CC82CC92C7A
:10099000E92CE401E92C6303031DCF2CD02CDA2CC5
:1009A0000130E5073C306502031CD72CD82CE92C1C
:1009B000E501E92C02306306031DDF2CE02CE92C55
:1009C0000130E60718306602031CE72CE82CE92CFE
:1009D000E601E201522D2F302E06031DF02CF12CE2
:1009E000012D6F03031DF52CF62C012D023063023F
:1009F0000318FB2CFC2CFF2C0130E307522DE301E4
:100A0000522D37302E06031D062D072D112D0230D5
:100A10006F06031D0C2D0D2D112D0530EB00F1304F
:100A2000F22F2F302E06031D162D172D522D0230BA
:100A30006F06031D1C2D1D2D522D6508A000640896
:100A4000A10066080A128A1583240A128A110A165E
:100A50008A1166220A128A115730F6009130F70087
:100A60008030F8000A168A1194240A128A110A307A
:100A7000F6009130F700C030F8000A168A1194246D
:100A80000A128A11333083120313AD00BB30AC005D
:100A9000DF30AB00AB0B4A2DAC0B4A2DAD0B4A2D12
:100AA000F030F22F6308031D562D572D342EC4301D
:100AB000A0000A30F2000030F3006608AB00AC0181
:100AC0002B08F4002C08F5000A128A15F8200A12E7
:100AD0008A117208303E0A168A11C1220A128A113E
:100AE000C53083120313A0000A30F2000030F30077
:100AF0006608AB00AC012B08F4002C08F5000A16C0
:100B00008A11F8260A128A117208303E0A168A11D2
:100B1000C1220A128A11C63083120313A0003A3090
:100B20000A168A11C1220A128A11C73083120313CE
:100B3000A0000A30F2000030F3006508AB00AC0101
:100B40002B08F4002C08F5000A128A15F8200A1266
:100B50008A117208303E0A168A11C1220A128A11BD
:100B6000C83083120313A0000A30F2000030F300F3
:100B70006508AB00AC012B08F4002C08F5000A1640
:100B80008A11F8260A128A117208303E0A168A1152
:100B9000C1220A128A11C93083120313A0003A300D
:100BA0000A168A11C1220A128A1101308312031314
:100BB000DD020030031CDE03DE025D085E04031D5F
:100BC000E22DE32D0F2F0530DD000030DE0062083E
:100BD000031DEB2DEC2D252ECA30A0000A30F200AB
:100BE0000030F3006408AB00AC012B08F4002C08C3
:100BF000F5000A128A15F8200A128A117208303E8E
:100C00000A168A11C1220A128A11CB3083120313E9
:100C1000A0000A30F2000030F3006408AB00AC0121
:100C20002B08F4002C08F5000A168A11F8260A127F
:100C30008A117208303E0A168A11C1220A128A11DC
:100C4000013083120313E2000F2F7230F60091304F
:100C5000F700CA30F8000A168A1194240A128A1181
:100C600083120313E2010F2F6303031D382E392E65
:100C70000F2FC430A0000A30F2000030F3006608E5
:100C8000AB00AC012B08F4002C08F5000A128A1501
:100C9000F8200A128A117208303E0A168A11C122FF
:100CA0000A128A11C53083120313A0000A30F20021
:100CB0000030F3006608AB00AC012B08F4002C08F0
:100CC000F5000A168A11F8260A128A117208303EB7
:100CD0000A168A11C1220A128A11C630831203131E
:100CE000A0003A300A168A11C1220A128A11C930AC
:100CF00083120313A0003A300A168A11C1220A1285
:100D00008A11CA3083120313A0000A30F2000030A7
:100D1000F3006408AB00AC012B08F4002C08F500CC
:100D20000A128A15F8200A128A117208303E0A1631
:100D30008A11C1220A128A11CB3083120313A00038
:100D40000A30F2000030F3006408AB00AC012B085D
:100D5000F4002C08F5000A168A11F8260A128A11E6
:100D60007208303E0A168A11C1220A128A11013015
:100D700083120313DD020030031CDE03DE025D0874
:100D80005E04031DC42EC52E0F2F0530DD0000307C
:100D9000DE006208031DCD2ECE2E032FC730A0002B
:100DA0000A30F2000030F3006508AB00AC012B08FC
:100DB000F4002C08F5000A128A15F8200A128A118C
:100DC0007208303E0A168A11C1220A128A11C830EE
:100DD00083120313A0000A30F2000030F30065080C
:100DE000AB00AC012B08F4002C08F5000A168A11A0
:100DF000F8260A128A117208303E0A168A11C12298
:100E00000A128A11202E7230F6009130F700C73096
:100E1000F8000A168A1194240A128A11302E023020
:100E20006306031D142F152FF12FC630A0003A3092
:100E30000A168A11C1220A128A11C73083120313BB
:100E4000A0000A30F2000030F3006508AB00AC01EE
:100E50002B08F4002C08F5000A128A15F8200A1253
:100E60008A117208303E0A168A11C1220A128A11AA
:100E7000C83083120313A0000A30F2000030F300E0
:100E80006508AB00AC012B08F4002C08F5000A162D
:100E90008A11F8260A128A117208303E0A168A113F
:100EA000C1220A128A11C93083120313A0003A30FA
:100EB0000A168A11C1220A128A11CA308312031338
:100EC000A0000A30F2000030F3006408AB00AC016F
:100ED0002B08F4002C08F5000A128A15F8200A12D3
:100EE0008A117208303E0A168A11C1220A128A112A
:100EF000CB3083120313A0000A30F2000030F3005D
:100F00006408AB00AC012B08F4002C08F5000A16AD
:100F10008A11F8260A128A117208303E0A168A11BE
:100F2000C1220A128A11013083120313DD0200303C
:100F3000031CDE03DE025D085E04031DA02FA12F4B
:100F4000F12F0530DD000030DE006208031DA92FFF
:100F5000AA2FE32FC430A0000A30F2000030F300C3
:100F60006608AB00AC012B08F4002C08F5000A124F
:100F70008A15F8200A128A117208303E0A168A1160
:100F8000C1220A128A11C53083120313A0000A304D
:100F9000F2000030F3006608AB00AC012B08F4004F
:100FA0002C08F5000A168A11F8260A128A1172080E
:100FB000303E0A168A11C1220A128A1101308312A8
:100FC0000313E200F12F7230F6009130F700C430C5
:100FD000F8000A168A1194240A128A118312031344
:100FE000E201003008008312031312149214FA3045
:100FF0008316031392008C1483120313121108003A
:101000000334831203138C1C062807282D28013073
:10101000DB070318DC0A0030DC07E2305B06043033
:1010200003195C06031D152816282C28DB01DC019A
:101030006C0803191C281D2820280130EC022C28DC
:101040006C08031D242825282C286B08031929283F
:101050002A282C280130EB028C1071088A00700EAF
:101060008300FE0E7E0E09000A128A155B210A1209
:101070008A15C13083120313A000831603133208AC
:101080000A168A11C1220A128A15C230831203136A
:10109000A0008316031333080A168A11C1220A120C
:1010A0008A15C33083120313A0003A300A168A113E
:1010B000C1220A128A15C43083120313A0008316BA
:1010C000031334080A168A11C1220A128A15C53080
:1010D00083120313A0008316031335080A168A111E
:1010E000C1220A128A15C63083120313A0003A30B7
:1010F0000A168A11C1220A128A15C73083120313F5
:10110000A0008316031336080A168A11C1220A1298
:101110008A15C83083120313A000831603133708FF
:101120000A168A11C1220A128A15080083120313B3
:101130006E0803199C289D28CA281630F3009030A9
:10114000F4000A168A1195230A128A15F901B628A5
:1011500079080A168A1155260A128A1579080A1280
:101160008A1524220A128A150130F9078312031303
:101170006D087902031CBD28BE28A8285D30F60042
:101180009030F7008030F8000A168A1194240A1271
:101190008A15E9286030F6009130F7008030F800B9
:1011A0000A168A1194240A128A151F30F60091300B
:1011B000F700C030F8000A168A1194240A128A1522
:1011C0000030F3009030F4000A168A1195230A12B9
:1011D0008A15333083120313A200BB30A100DF3025
:1011E000A000A00BF128A10BF128A20BF128080008
:1011F000F701F31FFC28FD280429F209F309F20A7C
:101200000319F30A0130F700F51F072908290F29F0
:10121000F409F509F40A0319F50A0130F706F80193
:10122000F901720873040319162917294C29013092
:10123000F600232901300310F20DF30DFF3E031DCC
:101240001B290130F607F31F262927291A29013007
:101250000310F80DF90DFF3E031D282973087502D0
:10126000031D342972087402031C372938293F29C9
:101270007208F4027308031CF503F50278140130B8
:101280000310F30CF20CFF3E031D40290130F6025F
:10129000031D4B294C292729770803195029512967
:1012A0005629F809F909F80A0319F90A7908F30027
:1012B0007808F200080002300A168A1110240A1277
:1012C0008A1583120313D80001300A168A111024DC
:1012D0000A128A1583120313D90000300A168A11E4
:1012E00010240A128A1583120313DA005808F60034
:1012F00004300310F60CFF3E031D792976080339EC
:10130000303E83160313B2008312031358080F39BB
:10131000303E83160313B300831203135908F600FB
:1013200004300310F60CFF3E031D9129760807399F
:10133000303E83160313B4008312031359080F3988
:10134000303E83160313B500831203135A08F600C8
:1013500004300310F60CFF3E031DA9297608073957
:10136000303E83160313B600831203135A080F3955
:10137000303E83160313B700B80108000030831213
:101380000313A4000030A3000030A2000030A1002D
:1013900075087404730472040319CF29D0291B2A19
:1013A0000130A500DE290130A0000310F20DF30D7D
:1013B000F40DF50DA00BD5290130A507F51FE12986
:1013C000E229D3290130A0000310A10DA20DA30D25
:1013D000A40DA00BE42975087902031DF9297408EE
:1013E0007802031DF92973087702031DF929720891
:1013F0007602031CFC29FD290C2A7208F6027308E8
:10140000031C730FF7027408031C740FF8027508AD
:10141000031C750FF902211401300310F50CF40CB4
:10142000F30CF20CFF3E031D0D2A0130A502031D33
:101430001A2A1B2AE2292408F5002308F4002208AE
:10144000F3002108F2000800F3000D300A168A119B
:1014500043220A128A150A300A168A1143220A12F6
:101460008A157308313E0A168A1143220A128A1518
:1014700020300A168A1143220A128A158316031392
:1014800020080A168A1143220A128A1583160313AA
:1014900021080A168A1143220A128A153A300A16BE
:1014A0008A1143220A128A158316031322080A1688
:1014B0008A1143220A128A158316031323080A1677
:1014C0008A1143220A128A153A300A168A114322D7
:1014D0000A128A158316031324080A168A11432256
:1014E0000A128A158316031325080A168A11432245
:1014F0000A128A1520300A168A1143220A128A1506
:101500008312031355080A168A1143220A128A15F8
:101510008312031356080A168A1143220A128A15E7
:1015200020300A168A1143220A128A1583120313E5
:1015300052080A168A1143220A128A1583120313CB
:1015400053080A168A1143220A128A1508008312C8
:101550000313A200C030A0002208303E0A168A11F0
:10156000C1220A128A15C23083120313A000831607
:10157000031320080A168A11C1220A128A15C330E1
:1015800083120313A0008316031321080A168A117D
:10159000C1220A128A15C43083120313A0003A3004
:1015A0000A168A11C1220A128A15C5308312031342
:1015B000A0008316031322080A168A11C1220A12F8
:1015C0008A15C63083120313A00083160313230861
:1015D0000A168A11C1220A128A15C7308312031310
:1015E000A0003A300A168A11C1220A128A15C830A0
:1015F00083120313A0008316031324080A168A110A
:10160000C1220A128A15C93083120313A00083165F
:10161000031325080A168A11C1220A128A15CB3033
:1016200083120313A00055080A168A11C1220A1258
:101630008A15CC3083120313A00056080A168A11AB
:10164000C1220A128A15CE3083120313A000520859
:101650000A168A11C1220A128A15CF308312031387
:10166000A00053080A168A11C1220A128A1508001E
:1016700083120313A40033302306031D402B412B98
:101680005B2B0A168A1166220A128A153F308312D2
:101690000313A400E7016E0803194F2B502B5B2B9B
:1016A0002B30F6009030F7008030F8000A168A11CF
:1016B00094240A128A15831203136E080319612BEE
:1016C000622B9C2B37302406031D672B682B782B4D
:1016D0006F03031D6C2B6D2B782B67080319712B7F
:1016E000722B752B0130E7028D2B6D08E7008D2BD7
:1016F0002F302406031D7D2B7E2B8D2B6F03031DA6
:10170000822B832B8D2B6D0867020318882B892B66
:101710008C2B0130E7078D2BE70167080A168A1129
:1017200055260A128A158312031367080A128A15AE
:10173000A7220A128A15B22B6030F6009130F7000A
:101740008030F8000A168A1194240A128A1515307E
:10175000F6009130F700C030F8000A168A11942480
:101760000A128A153730831203132406031DB92B7E
:10177000BA2BC42B02306F06031DBF2BC02BC42B0A
:101780000530EB00F130D32B2F302406031DC92B7D
:10179000CA2BD22B02306F06031DCF2BD02BD22B9E
:1017A000F030D32B0030080083120313A500223041
:1017B0002206031DDC2BDD2BE72B0A168A1166227D
:1017C0000A128A1583120313EA010530EB006B0835
:1017D000031DEB2BEC2BEE2BF030822C2F3025064B
:1017E000031DF32BF42B062C04306A020318F92B8B
:1017F000FA2B062C0130EA070A168A1166220A1211
:101800008A15053083120313EB00142C373025069C
:10181000031D0B2C0C2C142C6A080319102C112CF2
:10182000142C0130EA02FC2B04306A06031D192C2B
:101830001A2C4D2C6A08A3002307D13E8400831381
:101840000008F600840A00088403F7008230F800DC
:101850000A168A1194240A128A15831203136A083D
:10186000A3002307D33E840083130008F600840AF4
:1018700000088403F700C230F8000A168A11942485
:101880000A128A15C03083120313A0002A300A16E8
:101890008A11C1220A128A157F2C6A08A300230725
:1018A000D33E840083130008F600840A00088403F2
:1018B000F7008230F8000A168A1194240A128A1559
:1018C000831203136A08A3002307D53E8400831301
:1018D0000008F600840A00088403F700C230F8000C
:1018E0000A168A1194240A128A158030831203136F
:1018F000A0002A300A168A11C1220A128A15831200
:1019000003136A08080083120313A9000A30F200C7
:101910000030F3002908A200A3012208F4002308E4
:10192000F5000A168A11F8260A128A15720883121F
:101930000313A4007308A5000A30F2000030F3007E
:101940002908A600A7012608F4002708F5000A12B6
:101950008A15F8200A128A15720883120313A80048
:1019600003300310A80DFF3E031DB12C0310280DFA
:101970002404A9000A30F2000030F3002008A2007D
:10198000A3012208F4002308F5000A168A11F8269C
:101990000A128A15720883120313A4007308A500A3
:1019A0000A30F2000030F3002008A600A701260844
:1019B000F4002708F5000A128A15F8200A128A1581
:1019C000720883120313A80003300310A80DFF3E12
:1019D000031DE52C0310280D2404A0000A30F2009A
:1019E0000030F3002108A200A3012208F40023081C
:1019F000F5000A168A11F8260A128A15720883124F
:101A00000313A4007308A5000A30F2000030F300AD
:101A10002108A600A7012608F4002708F5000A12ED
:101A20008A15F8200A128A15720883120313A80077
:101A300003300310A80DFF3E031D192D0310280DC0
:101A40002404A1002908F30002300A168A11EF22AB
:101A50000A128A15831203132008F30001300A16B4
:101A60008A11EF220A128A15831203132108F30048
:101A700000300A168A11EF220A128A150800831212
:101A80000313A80066302206031D472D482D672D3D
:101A90003F30A800E0010530EB00E1013C30F600EA
:101AA0009030F7008030F8000A168A1194240A1248
:101AB0008A15F201C4300A168A110D230A128A15FA
:101AC000F2010F300A168A110D230A128A158312A9
:101AD00003136B08031D6D2D6E2D702DF030632EDA
:101AE000373028060319752D762D7C2D2F302806CA
:101AF000031D7B2D7C2DB92D043060020318812D30
:101B0000822DB92D6008C43EA0002A300A168A1121
:101B1000C1220A128A15053083120313EB003730F5
:101B200028060319942D952D9A2D3030A6000030EB
:101B3000A7009E2D3130A6000030A7002608DF0048
:101B40006108031DA42DA52DAC2D6008BE3E8400A8
:101B50005F0883138000B72D6103031DB02DB12DE5
:101B6000B72D6008B93E84005F0883138000013000
:101B7000E0076108031DBD2DBE2DE52D0430600674
:101B8000031DC32DC42DE52DE0010130E1000A162F
:101B90008A1166220A128A15B930F6009030F700D1
:101BA0008030F8000A168A1194240A128A15F2016C
:101BB000C4300A168A110D230A128A15F2010F3059
:101BC0000A168A110D230A128A1583120313610360
:101BD000031DEB2DEC2D622E04306006031DF12D4C
:101BE000F22D622E83160313C201BD01831203136B
:101BF0001211F2010C300A168A110D230A128A15ED
:101C00000A168A1166220A128A15BE30F200B9300D
:101C1000F3000430F4000030F5000A168A110A2699
:101C20000A128A1572087304031D172E182E392EF6
:101C3000BE30F7000030F80000300A168A11E523A4
:101C40000A128A157D30F6009030F7008030F800D7
:101C50000A168A1194240A128A150A30F600913065
:101C6000F700C030F8000A168A1194240A128A1567
:101C70004F2E9330F6009030F7008030F8000A16AF
:101C80008A1194240A128A15F030F6009030F70079
:101C9000C030F8000A168A1194240A128A153330CB
:101CA00083120313A500BB30A400DF30A300A30BF5
:101CB000572EA40B572EA50B572E83120313E001AA
:101CC000F130632E0030080083120313AA00113094
:101CD0002206031D6C2E6D2E7C2EE9010330E800D8
:101CE00083160313C301C401C501C6013F3083122B
:101CF0000313AA000530EB006B08031D802E812E14
:101D0000832EF030FF2F37302A06031D882E892EB0
:101D1000A52E0430690203188E2E8F2EA52E690879
:101D2000C33E84003130831380000130E907690825
:101D3000C43EA0002A300A168A11C1220A128A154E
:101D4000053083120313EB00C32E2F302A06031D28
:101D5000AA2EAB2EC32E043069020318B02EB12E6A
:101D6000C32E6908C33E84003030831380000130E5
:101D7000E9076908C43EA0002A300A168A11C12268
:101D80000A128A15A02E04306906031DC82EC92E1A
:101D9000FE2FAB01AC01831203132B08263E8400F7
:101DA0002B080A168A113B240A128A158313800015
:101DB000013083120313AB070318AC0A0030AC07E1
:101DC0002C08803AFF0080307F02031DE92E04308A
:101DD0002B02031CEC2EED2ECB2EC330F20026304E
:101DE000F3000430F4000030F5000A168A110A26C8
:101DF0000A128A1572087304031DFF2E002F272F65
:101E00000A168A1166220A128A15C730F600903027
:101E1000F7008030F8000A168A1194240A128A15F5
:101E2000F2010C300A168A110D230A128A154D3060
:101E300083120313A5001930A4004F30A300A30B95
:101E40001F2FA40B1F2FA50B1F2F0F30FF2F0130AB
:101E500083120313E8026808031D2F2F302FA02FD1
:101E60000A168A1166220A128A15F2010C300A1625
:101E70008A110D230A128A156D30F6009030F70092
:101E80008030F8000A168A1194240A128A154E30FE
:101E9000F6009130F700C030F8000A168A11942439
:101EA0000A128A156830F6009130F700CC30F8003D
:101EB0000A168A1194240A128A153C3083120313DD
:101EC000EC00962FC930A0000A30F2000030F30079
:101ED0006C08A300A4012308F4002408F5000A12EA
:101EE0008A15F8200A128A157208303E0A168A11DD
:101EF000C1220A128A15CA3083120313A0000A30C5
:101F0000F2000030F3006C08A300A4012308F400E1
:101F10002408F5000A168A11F8260A128A15720892
:101F2000303E0A168A11C1220A128A15831203133F
:101F30006C08031D9C2F9D2F622F0330E800DB2FC0
:101F40000A168A1166220A128A15F2010C300A1644
:101F50008A110D230A128A158D30F6009030F70091
:101F60008030F8000A168A1194240A128A15C030AB
:101F700083120313A0006808303E0A168A11C1229A
:101F80000A128A15D530F6009030F700C230F800FA
:101F90000A168A1194240A128A1533308312031305
:101FA000A500BB30A400DF30A300A30BD52FA40BEA
:101FB000D52FA50BD52F0A168A1166220A128A156B
:101FC0009C30F6009030F7008130F8000A168A1134
:101FD00094240A128A15F201C4300A168A110D23BC
:101FE0000A128A15F2010F300A168A110D230A12FD
:101FF0008A1583120313E9010530EB000030080055
:102000000D340A344E346F3420346C346F346734FA
:102010007334203461347634613469346C3461341F
:1020200062346C3465340D340A3400340D340A34AF
:1020300023342034543449344D344534203420344E
:102040002034203420344534563420345334503432
:102050000D340A34003423342034543449344D349C
:102060004534203420342034203420344534563450
:10207000203453345034003445346E347434653471
:10208000723420346E3465347734203470346134E3
:1020900073347334773464340034543449344D34F5
:1020A0004534203420342034203420344534563410
:1020B000203420345334503400344C346F3467347B
:1020C0007334203444346F3477346E346C346F346A
:1020D0006134643465346434003459346F34753495
:1020E0002034613472346534203462346C346F349B
:1020F00063346B3465346434003450346134733485
:10210000733477346F347234643420346334683415
:1021100061346E34673465340034573472346F344C
:102120006E3467342034503461347334733477340C
:102130006F3472346434003445344E34543445348E
:1021400052342034503441345334533457344F34A0
:102150005234443400344334683461346E34673468
:1021600065342034703461347334733477346434B8
:102170000034523465346E3474346534723420342F
:1021800070346134733473347734643400344C34D1
:102190006F34673469346E342034533475346334A7
:1021A0006334653473347334003461347434743498
:1021B00065346D3470347434733420346C34653465
:1021C0006634743400344C346F34673473342034E0
:1021D00063346C346534613472346534643400348F
:1021E0006E346F34743420346D3461347434633439
:1021F000683469346E346734003444346F3477346F
:102200006E346C346F346134643420346C346F3425
:102210006734003453347534633463346534733451
:102220007334663475346C3400344134763461343C
:1022300069346C34613462346C3465340034613434
:102240007634613469346C34613462346C346534AE
:10225000003443346C3465346134723420346C346B
:102260006F3467340034483448343A344D344D3494
:102270003A34533453340034533465347434203492
:10228000743469346D3465340034563469346534DB
:10229000773420346C346F3467340034573461340D
:1022A00069347434203466346F34723400345434F6
:1022B00069346D34653420347334653474340034D7
:1022C0004E346F3420346C346F34673473340034DC
:1022D000733465346334733400343134303431341E
:1022E000303400342034203400344334203400347B
:1022F00047343134003447343234003447343334D3
:10230000003447343434003447344E3400344734D6
:1023100052340034FF1B942983137F18831700085D
:10232000840A0319FF0A08007F087F398A0004081D
:08233000840A0319FF0A820070
:10240C008316031306083F3886000800831603134F
:10241C009F17831203131F14080064008001840AA1
:10242C000406031900340406142A0A168A115922C8
:10243C000A168A1183160313111408000A168A113E
:10244C0059220A168A118316031311150800F2007B
:10245C000A168A1159220A168A117208831203135A
:10246C00930008000A168A1124220A168A110A16E9
:10247C008A111B220A168A110800F20072088312B4
:10248C00031399000C1E4B2A4C2A482A0C120800E4
:10249C00831603138801091189100A168A114F2714
:1024AC000A168A1108008316031314195E2A5F2A70
:1024BC00592A11081F39031D642A652A592A080054
:1024CC00F20101300A168A110D230A168A11043002
:1024DC00F7003D30F600F60B712AF70B712A762ABD
:1024EC00080000300A168A1110240A168A11F60008
:1024FC007F30F6057608F30000300A168A11EF22B9
:10250C000A168A110800831203131F151F198F2A2C
:10251C00902A8C2A1E08F500831603131E08F4005B
:10252C007508F3007408F2000800F400F301741C41
:10253C00A02AA12AA32A7208F3070310F20D031094
:10254C00F40C7408031DAB2AAC2A9D2A73080800EE
:10255C007E088A007F0882000A168A11AE220A16AB
:10256C008A118000840A04087D0603190034FF0ACE
:10257C000319FE0AB22A83120313A100F2012008E8
:10258C000A168A110D230A168A11F201F20A831215
:10259C00031321080A168A110D230A168A11080042
:1025AC008434913487349134783491347B3491343D
:1025BC007E349134813491344534913429349134BE
:1025CC00FD3490343C349134AB3490344F344E342D
:1025DC000034F4000A168A111B220A168A11D03014
:1025EC000A168A112D220A168A1174080A168A11E3
:1025FC002D220A168A1173080A168A112D220A1620
:10260C008A110A168A1124220A168A110800F5006A
:10261C007218112B152B831203130915182B831207
:10262C0003130911750888008914A630F300F30B05
:10263C001D2B00008312031389101B30F4009E30F5
:10264C00F300F30B272BF40B272B00000800F200F0
:10265C000A168A1159220A168A1183160313911528
:10266C000A168A1159220A168A11831203131308A7
:10267C00F3007203031D432B442B482B83160313C7
:10268C0091164B2B83160313911211167308080025
:10269C007208F7007408F6007308F500F30A0319C2
:1026AC00F40A760883120313FF00750884000A16D7
:1026BC008A118A210A168A11FF007708F70A84000A
:1026CC007F08831380000008031D6D2B6E2B502B8D
:1026DC000800F90044307906031D752B762B942BDA
:1026EC0083120313EE01ED01FA01E330F600903092
:1026FC00F7008030F8000A168A1194240A168A1101
:10270C00333083120313A200BB30A100DF30A000D2
:10271C00A00B8E2BA10B8E2BA20B8E2B0800AA2BA1
:10272C007408FF00730884000A168A118A210A169D
:10273C008A110A168A1143220A168A110130F307EC
:10274C000318F40A0030F407740883120313FF0013
:10275C00730884000A168A118A210A168A11003A13
:10276C00031DB92BBA2B962B0800F3007308031D1D
:10277C00C02BC12BC62B8312031306083F39E42B45
:10278C003F30831203130605F2003F307206031923
:10279C00D02BD12BD82B7B080319D52BD62BD82B90
:1027AC00FB01C12B3F300605F2003F307206031DC2
:1027BC00E02BE12BE32B0130FB003F300800F9004C
:1027CC00FF2B7808FF00770884000A168A118A21EB
:1027DC000A168A11F30079080A168A11C3240A16FC
:1027EC008A110130F7070318F80A0030F807013096
:1027FC00F907780883120313FF00770884000A1680
:10280C008A118A210A168A11003A031D0E2C0F2CEC
:10281C00E72B0800F4000A168A111B220A168A11EB
:10282C00D0300A168A112D220A168A1174080A163B
:10283C008A112D220A168A110A168A1138220A16B2
:10284C008A11D1300A168A112D220A168A110030EB
:10285C000A168A112D230A168A11F5000A168A11F6
:10286C0024220A168A1175080800F4000A168A1127
:10287C001B220A168A11A0300A168A112D220A165A
:10288C008A1174080A168A112D220A168A110A1640
:10289C008A1138220A168A11A1300A168A112D22A1
:1028AC000A168A1101300A168A112D230A168A116A
:1028BC00F5000A168A1124220A168A1175080800D6
:1028CC00053083120313A0000A307A06031D6F2C07
:1028DC00702C712CFA010A30F2007A080A168A114F
:1028EC009B220A168A11831203132007A000A7301B
:1028FC00F7000030F80020080A168A11E5230A16A2
:10290C008A110130FA070930831203136D02031880
:10291C00902C912C932C0130ED070800F2017808D3
:10292C000A168A110D230A168A11B22CF201F20A28
:10293C007708FF00760884000A168A118A210A1685
:10294C008A110A168A110D230A168A110130F6070C
:10295C000318F70A0030F707770883120313FF00F8
:10296C00760884000A168A118A210A168A11003AFE
:10297C00031DC12CC22C9C2C0800F4000A168A11D1
:10298C001B220A168A11A0300A168A112D220A1649
:10299C008A1174080A168A112D220A168A117308D4
:1029AC000A168A112D220A168A110A168A11242255
:1029BC000A168A11B830F5000B30F6000130F5021A
:1029CC000030031CF603F602750A031DF12C760A7F
:1029DC00031DF12CF22CE42C08008312031398171E
:1029EC0018162608AA002708AB002808AC002908EE
:1029FC00AD0004300310AA0DAB0DAC0DAD0DFF3EB8
:102A0C00031D002D2D08F5002C08F4002B08F300F5
:102A1C002A08F2000130F9003130F8002D30F700AF
:102A2C000030F6000A128A15BE210A168A117208A5
:102A3C00FF3E8316031399008C16080083120313B0
:102A4C0094152608AA002708AB002808AC00290812
:102A5C00AD0002300310AA0DAB0DAC0DAD0DFF3E59
:102A6C00031D302D2D08F5002C08F4002B08F30065
:102A7C002A08F2000130F9003130F8002D30F7004F
:102A8C000030F6000A128A15BE210A168A11720845
:102A9C00FF3E83160313930083120313941608004E
:102AAC007208F600702D0130F4020030031CF5039F
:102ABC00F5027308F30A840083130008FF007608FC
:102ACC00F60A84007F0880000008031D6E2D6F2D10
:102ADC00702D7D2D74087504031D752D762D592DC3
:102AEC007D2D76088400831380010130F6070130B8
:102AFC00F4020030031CF503F502740A031D8A2D41
:102B0C00750A031D8A2D8B2D772D0800003083123A
:102B1C000313A9000030A8002530A7008030A600C0
:102B2C000A168A11F3240A168A1100308312031331
:102B3C00A9000130A8008630A700A030A6000A1614
:102B4C008A1124250A168A110A168A1177220A1666
:102B5C008A110A168A1106220A168A110A168A1175
:102B6C000C220A168A110A168A114E220A168A118A
:102B7C000A128A11F3270A168A110B178B170800F1
:102B8C0083120313A001A101760877040319CF2D3A
:102B9C00D02D052E0130A200DC2D01300310F60DD6
:102BAC00F70DFF3E031DD42D0130A207F71FDF2DBB
:102BBC00E02DD32D01300310A00DA10DFF3E031D00
:102BCC00E12D77087902031DED2D76087802031CA0
:102BDC00F02DF12DF82D7608F8027708031CF90377
:102BEC00F902201401300310F70CF60CFF3E031D04
:102BFC00F92D0130A202031D042E052EE02D210813
:102C0C00F7002008F60008000130F4020030031C25
:102C1C00F503F502740A031D172E750A031D172EF2
:102C2C00182E252EF201F301542E0130F20701303B
:102C3C00F3070130F4020030031CF503F5027208AF
:102C4C0084008313000803192C2E2D2E462E730896
:102C5C00840000080319332E342E462E7408750494
:102C6C000319392E3A2E462E730884000008F600FC
:102C7C0072088400000876060319452E462E1B2E7A
:102C8C00730884000008F600720884000008F7003E
:102C9C0076087702F200F301031CF3030800F60038
:102CAC000A30F20076080A168A119B220A168A113B
:102CBC00053EF700F8017808A03E840078087707F5
:102CCC000A168A113B240A168A11831380000130DC
:102CDC00F80706307802031C742E752E612E7808C6
:102CEC00A03E840080017708063E0A168A113B2418
:102CFC000A168A1183120313D5007708073E0A16A9
:102D0C008A113B240A168A1183120313D600D701A9
:102D1C007708083E0A168A113B240A168A11831278
:102D2C000313D2007708093E0A168A113B240A16AF
:102D3C008A1183120313D300D40108004D30F6001E
:102D4C009030F7008130F8000A168A1194240A1684
:102D5C008A110A128A1534200A168A118312031357
:102D6C002208F6000030F700CA30F8000A168A1163
:102D7C0094240A168A11CE3083120313A0000A3051
:102D8C00F2000030F3002308A400A5012408F4008D
:102D9C002508F5000A128A15F8200A168A117208FD
:102DAC00303E0A168A11C1220A168A11CF308312BC
:102DBC000313A0000A30F2000030F3002308A40033
:102DCC00A5012408F4002508F5000A168A11F82636
:102DDC000A168A117208303E0A168A11C1220A1686
:102DEC008A110800F701F51FFC2EFD2E042FF409A3
:102DFC00F509F40A0319F50A0130F700F31F072F40
:102E0C00082F0D2FF209F309F20A0319F30A7208BD
:102E1C0073040319122F132F402F0130F6001F2FAC
:102E2C0001300310F20DF30DFF3E031D172F01307F
:102E3C00F607F31F222F232F162F73087502031D7D
:102E4C00292F72087402031C2C2F2D2F332F72087C
:102E5C00F4027308031CF503F50201300310F30CA4
:102E6C00F20CFF3E031D342F0130F602031D3F2FE1
:102E7C00402F232F77080319442F452F4A2FF4098D
:102E8C00F509F40A0319F50A7508F3007408F20041
:102E9C000800C330F700CD30F600F60B532FF70BBC
:102EAC00532FF20133300A168A110D230A168A1198
:102EBC001B30F7009E30F600F60B622FF70B622FDB
:102ECC000000F20133300A168A110D230A168A11FA
:102EDC00A630F600F60B702F0000F20133300A1604
:102EEC008A110D230A168A117B2F7C2F0000F20108
:102EFC0038300A168A110D230A168A11A630F600EC
:102F0C00F60B862F0000F20101300A168A110D23F0
:102F1C000A168A110430F7003D30F600F60B942F98
:102F2C00F70B942F992FF2010C300A168A110D23EE
:102F3C000A168A11A630F600F60BA22F0000080024
:102F4C00013083120313EE000A128A155B210A1654
:102F5C008A11A730F200B230F3000630F4000030D2
:102F6C00F5000A168A1156250A168A11AD30F200A0
:102F7C00831203132108F3000230F4000030F50033
:102F8C000A168A1156250A168A110A30F2000030E8
:102F9C00F300831203132208A300A4012308F400F6
:102FAC002408F5000A128A15F8200A168A117208EC
:102FBC00303E83160313AF000A30F2000030F300EA
:102FCC00831203132208A300A4012308F40024088D
:102FDC00F5000A168A11F8260A168A117208303E74
:102FEC0083160313B000B1010A168A1166240A165F
:042FFC008A1108002E
:02400E00FB3F76
:00000001FF
